:020000040800F2
:1000000058070020A1010008CF210008991E000810
:10001000CD210008630400089D2A000800000000AC
:100020000000000000000000000000003522000871
:10003000AD06000800000000D5210008BD22000820
:10004000BB010008BB010008BB010008BB010008A0
:10005000BB010008BB010008BB010008BB01000890
:10006000BB010008BB010008BB010008A90400088F
:10007000BB010008BB010008BB010008BB01000870
:10008000BB010008BB010008BB010008BB01000860
:10009000BB010008BB010008BB010008BB01000850
:1000A000BB010008BB010008BB010008BB01000840
:1000B000BB010008BB010008BB010008BB01000830
:1000C000BB010008BB010008BB010008BB01000820
:1000D000BB010008552A0008BB010008BB0100084D
:1000E000BB010008BB010008BB010008BB01000800
:1000F000BB010008BB01000865230008B504000827
:10010000BB010008BB010008BB010008BB010008DF
:10011000BB010008D9250008BB010008BB0100088D
:10012000BB010008BB01000859050008BB0100081D
:10013000BB010008BB010008BB010008BB010008AF
:10014000BB010008BB010008BB010008BB0100089F
:10015000BB010008BB01000865050008BB010008E1
:10016000BB010008BB010008BB010008BB0100087F
:10017000BB010008BB010008BB0100080000000033
:10018000BB010008BB010008DFF810D000F0F6F852
:1001900000480047692C0008AFF300805807002092
:1001A0000648804706480047FEE7FEE7FEE7FEE711
:1001B000FEE7FEE7FEE7FEE7FEE7FEE75523000861
:1001C000890100082DE9F05F0546002092469B4614
:1001D00088460646814640241BE02846414647465D
:1001E000224600F083F853465A46C01A914110D374
:1001F00011461846224600F06AF82D1A67EB0108EE
:100200004F4622460120002100F061F817EB00095B
:100210004E41201EA4F10104DFDC484631462A4647
:100220004346BDE8F09FD2B201E000F8012B491E21
:10023000FBD270470022F6E710B513460A46044683
:100240001946FFF7F0FF204610BD30B505462A4697
:100250000B4612F8010B13F8014B08B1A042F8D07D
:100260001CB1002802D06D1CF1E7284630BD00000B
:1002700070B50F4D00B92868002412E00A4602E06C
:100280009E4203D0521C1378002BF9D1DAB22243DC
:1002900005D02BB124B1002100F8011B04E0044675
:1002A000401C0678002EE9D12860204670BD000071
:1002B0002000002070B5064602F002FC04680546E6
:1002C0000A220021304600F021F82C6070BD202A5F
:1002D00004DB203A00FA02F1002070479140C2F19D
:1002E000200320FA03F3194390407047202A04DBCF
:1002F000203A21FA02F00021704721FA02F3D0409F
:10030000C2F1200291400843194670472DE9F04799
:1003100091460F4680460446002614F8015B2DB135
:1003200000F03EF80068405DC007F6D12B2D02D0EA
:100330002D2D18D0641E4A463946204600F034F868
:1003400027B13968A14201D1C7F8008071054FF08B
:1003500002040BD54042002803DD02F0B1FB04602B
:10036000A007BDE8F08746F48066E4E70028F8DAE5
:1003700002F0A6FB04606FF00040F2E7064C074D68
:1003800006E0E06840F0010394E807009847103465
:10039000AC42F6D3FFF7FCFE4C2F00086C2F000890
:1003A00000487047482F00082DE9F05F824600782A
:1003B000002715468B460AF10104B946302801D0C2
:1003C0009DB113E014F8010B0127782803D05828B9
:1003D00001D045B10AE00DB1102D07D1002710253D
:1003E00014F8010B02E0082500E00A250026B046BB
:1003F0000EE005FB080005FB06F1012701EB1046A6
:100400001FFA80F8B6F5803F00D3B94614F8010B07
:10041000294600F018F80028EBDABBF1000F05D0F0
:100420000FB1641E00E05446CBF80040B9F1000F54
:1004300006D002F045FB02210160C81EBDE8F09F16
:1004400048EA0640FAE73A2800D2303820F0200285
:10045000412A01D3A2F13700884201D34FF0FF3087
:100460007047FEE770B503464FF6FF7000220D4D52
:1004700014E000BF13F8014B521C84EA000606F09A
:100480000F0692B235F8166086EA101080EA14144E
:1004900004F00F0435F8144084EA10108A42E9D3BE
:1004A00070BD0000842E0008014800F05DB9000016
:1004B00078010020F0B42349202081F83D00224833
:1004C000012180F83510CB06204C214F20490068CF
:1004D0001E4A4C3C1E4D261F603FB839904201D940
:1004E000236008E0A84201D9336004E0B84201D992
:1004F000CB6000E08B604FF08063904201D92360B5
:1005000008E0A84201D9336004E0B84201D9CB60C9
:1005100000E08B604FF48003904201D9236008E033
:10052000A84201D9336004E0B84201D9CB6000E0B1
:100530008B600849002081F83400F0BC024800F0CC
:1005400013B90000AC000020D8010020586402401C
:10055000B860024098020020014800F005B9000090
:1005600038020020F0B42449202081F83D00234ABD
:10057000012082F83500224D2249214B4C3DDFF805
:1005800084C010681F4E2F1FB8394FF00064ACF1C3
:10059000600C984201D92C6008E0B04201D93C605F
:1005A00004E0604501D9CC6000E08C604FF08064CD
:1005B000984201D92C6008E0B04201D93C6004E0C7
:1005C000604501D9CC6000E08C604FF48004984213
:1005D00001D92C6008E0B04201D93C6004E06045DC
:1005E00001D9CC6000E08C60002082F83400F0BCBF
:1005F000024800F0B9B80000F00000209802002086
:1006000058640240B860024001681823CAB2103A28
:10061000B2FBF3F2054B6FF30901032A9B5CC36540
:1006200000D9091D8165084670470000A42E000806
:1006300010B5014600208B698A6A4FF0C07453B12F
:10064000B3F5005F15D072B1012A0CD0022A0AD08E
:10065000032A09D104E01AB1012A06D0022A03D1E3
:10066000C96AC90100D5012010BDC96AA142FAD0EA
:1006700010BD002AF7D0012AF2D0022AF3D0032AB3
:10068000F3D010BD30B50468256825F480252560B9
:10069000046863608368402B036803D09960006836
:1006A000C26030BD9A600068C16030BD704772B6EC
:1006B000FEE72DE9F0410446876D00F0D7FA0646C3
:1006C00094F835000025022806D08020606584F863
:1006D00034500120BDE8F0812068016821F0160146
:1006E00001602068416921F080014161206C08B9F6
:1006F000A06C20B12068016821F008010160206829
:10070000016821F0010101600CE000F0AFFA801BEC
:10071000052807D920206065032084F8350084F877
:100720003450D7E720680068C007EED194F85C1019
:100730003F208840B860012084F8350084F83450A8
:100740000020C7E790F83510022903D080214165C9
:1007500001207047052180F835100068016821F0FC
:1007600001010160002070472DE9F84304464FF075
:100770000009CDF8009063484FF41651A56D00684C
:10078000B0FBF1F72E6894F85C10082000FA01F134
:1007900031420FD021680A6852070BD50A6822F04F
:1007A00004020A6094F85C108840A860606D40F014
:1007B0000100606594F85C104FF0010808FA01F040
:1007C000304208D021684969090604D5A860606DE7
:1007D00040F00200606594F85C10042088403042CC
:1007E00008D021680968890704D5A860606D40F0C9
:1007F0000400606594F85C1010208840304218D0E6
:1008000021680968090714D5A860206801684903B0
:1008100004D50068000308D5A16C07E00168C9058C
:1008200003D4016821F008010160216C09B1204660
:10083000884794F85C1020208840304231D02168ED
:100840000968C9062DD5A86094F8350005282068E8
:10085000016806D0490347D5006800031DD4616CC8
:100860001CE021F0160101602068416921F080013F
:100870004161206C08B9A06C20B12068016821F0AA
:100880000801016094F85C103F208840A86084F85B
:10089000358084F83490216D1FE0E16B09B120466A
:1008A0008847606D00282BD0606DC00714D00520EC
:1008B00084F835002068016821F00101016000988A
:1008C000401C0090B84203D820680068C007F6D1E9
:1008D00084F8358084F83490E16C002910D001B0A0
:1008E0002046BDE8F04308470168C905D5D4016832
:1008F00021F01001016084F8358084F83490CCE751
:10090000BDE8F8831C0000202DE9F041044600F00A
:10091000ADF906465CB1022084F83500002584F864
:1009200034502068016821F0010101600DE00120D0
:10093000BDE8F08100F09AF9801B052805D9202038
:100940006065032084F83500F2E720680068C0077E
:10095000F0D12268116820480140D4E9010318430E
:10096000D4E903363343184363691843A369184332
:10097000E3691843236A18430843616A042903D1D1
:10098000D4E90B1319430843106020684069666A74
:1009900020F0070130460E43012704280CD1A06A3D
:1009A0000643E06A40B12046FFF742FE20B14020F6
:1009B000606584F83570BAE7206846612046FFF725
:1009C00023FE94F85C203F2191408160656584F8A6
:1009D00035700020ACE700003F8010F02DE9F041B9
:1009E0000446866D90F83400002501280DD00120C2
:1009F00084F8340094F835700020012F07D084F873
:100A0000340002252846BDE8F0810220FBE70227DA
:100A100084F8357060652046FFF734FE94F85C106A
:100A20003F208840B0602068016841F016010160F5
:100A3000206C20B12068016841F008010160206845
:100A4000016841F001010160DCE7000070B5044677
:100A500000F00CF90546601C02D0044800780444FC
:100A600000F004F9401BA042FAD370BD1000002032
:100A70002DE9F84FDFF8BCA1002201250AF1040B93
:100A800003264FF00F090BF1040E00BF0B6805FAA7
:100A900002F42340A34270D10F7907F00307012F1E
:100AA00001D0022F16D187684FEA420806FA08FCE7
:100AB00027EA0C07D1F80CC00CFA08FC4CEA070C2A
:100AC000C0F808C04768A7430C79C4F300149440E9
:100AD0003C4344600C79E443A4070AD0C4684FEA5D
:100AE000420C06FA0CF7BC438F6807FA0CF7274351
:100AF000C7600C7904F00304022C12D1D40800EB77
:100B0000840CDCF820405707FF0E09FA07F824EAA6
:100B10000804D1F8108008FA07F848EA0408CCF86D
:100B2000208004684FEA420C06FA0CF7BC430F79A8
:100B300007F0030707FA0CF7274307604C6814F423
:100B4000403F70D03C4C276847F4804727602468BA
:100B500022F0030704F480440094384C07EB040CA3
:100B6000DCF8084897074FEA177809FA08F7BC43FA
:100B7000334FB84202D1002724E054E0314FB8424D
:100B800001D101271EE0304FB84201D1022719E000
:100B90002E4FB84201D1032714E02D4FB84201D1A6
:100BA00004270FE02B4FB84201D105270AE02A4F56
:100BB000B84201D1062705E0284FB84201D10727E6
:100BC00000E0082707FA08F72743CCF80878DAF896
:100BD00000405746D1F804C09C435FEACC3C00D5A6
:100BE0001C433C60DBF800405F46D1F804C09C43E6
:100BF0005FEA8C3C00D51C433C60DEF80040774641
:100C0000D1F804C09C435FEACC2C00D51C433C6067
:100C1000084F0C373C68D1F804C09C435FEA8C2C29
:100C200000D51C433C60521C102AFFF42FAFBDE8D6
:100C3000F88F0000003C0140443802400030014081
:100C4000000002400004024000080240000C024084
:100C5000001002400014024000180240001C024034
:100C60000AB1816170470904FBE700000148806810
:100C7000704700001000002002488168027811448B
:100C800081607047100000200B4810B5016841F4E6
:100C900000710160016841F480610160016841F404
:100CA00080710160032000F06FF80F2000F006F85B
:100CB00000F024F8002010BD003C024070B50D4D3E
:100CC00004464FF47A712878B1FBF0F00A490968BC
:100CD000B1FBF0F000F020FB48B9102C07D2002245
:100CE0002146501E00F030F800206C6070BD0120DD
:100CF00070BD0000100000201C0000200A4808B54C
:100D0000016841F480410160006800F48040009077
:100D10000548001F016841F080510160006800F043
:100D20008050009008BD000044380240002809DBD4
:100D300000F01F02012191404009800000F1E020F5
:100D4000C0F8001170470000F0B40E4B1B680C4651
:100D5000C3F30223C3F10705042D00D90425191D8F
:100D6000072901D2002300E0DB1E012606FA05F167
:100D7000491E214099409E40761E16403143F0BCEA
:100D800001F08DBE0CED00E0064900F00702086896
:100D90004FF6FF03184040EA0220034A1043086060
:100DA000704700000CED00E00000FA0570470000FD
:100DB0002DE9F0470E46050065D0DFF81481D8F81C
:100DC0000000F7B200F00700B04207D288F80070C8
:100DD000D8F8000000F00700B04254D128683D4C1C
:100DE000810712D5400703D5206840F4E050206009
:100DF0002878000703D5206840F460402060206810
:100E0000A96820F0F000084320602878C0072DD0A2
:100E1000304968680839012812D0022813D0032805
:100E200011D00968890700292DDA216821F0030112
:100E300001432160FFF71AFF814641F2883A0EE034
:100E400009688903EFE709688901ECE7FFF70EFFFE
:100E5000A0EB0901514502D90320BDE8F0872068C5
:100E6000696800F00C00B0EB810FEFD1D8F80010EA
:100E7000404601F00701B14207D90770006800F051
:100E80000700B04201D00120E7E72878400705D5E8
:100E90002068E96820F4E0500843206028780007C3
:100EA00006D52068296920F4604040EAC10020602E
:100EB00000F03EF82168084AC1F30311515CC840B4
:100EC0000649086006480068FFF7F8FE0020C4E7FE
:100ED000003C024008380240AC2E00081C000020F4
:100EE0001400002001490120C864704700004742F7
:100EF0000448054900680968044AC1F38221515C2D
:100F0000C84070471C00002008380240BC2E000872
:100F10000448054900680968044AC1F34231515C3C
:100F2000C84070471C00002008380240BC2E000852
:100F3000154810B5006810F00C02144813D0411089
:100F4000042A0FD0082A0ED10F4C241F22682368D0
:100F500002F03F025B0207D52068C0F38810A0FBB7
:100F6000010106E0084610BD2168C1F38811A1FB0C
:100F700000010023FFF726F92168C1F30141491C54
:100F80004900B0FBF1F010BD083802400024F40025
:100F9000054810B50068000605D5FFF707FF0249B0
:100FA0008020891C087010BD0C3802402DE9F84FD4
:100FB00004006ED02078DFF84C93C007A9F1040537
:100FC0004AD009F104000168C1F38101012908D068
:100FD0000068C0F3810002280AD1D9F8000040025D
:100FE00006D52868800337D560680028E1D033E053
:100FF0006068B0F5803F10D0B0F5A02F286810D001
:1010000020F480302860286820F480202860606800
:10101000A8B1FFF72BFE06460DE0286840F48030AB
:10102000F4E740F480202860F7E700BFFFF71EFEDA
:10103000801B642873D828688003F7D50CE0FFF77D
:1010400015FE064605E000BFFFF710FE801B642872
:10105000F0D828688003F7D42078DFF8AC828007C6
:101060004FF0000A3ED5A748001D016811F00C0F93
:1010700008D00068C0F3810002280BD1D9F8000025
:10108000400207D42868800716D5E068012800D1FF
:1010900012E033E1E068B8B10120C8F80000FFF7C2
:1010A000E5FD064605E000BFFFF7E0FD801B0228D6
:1010B000C0D828688007F7D52868216920F0F80093
:1010C00040EAC10028600DE0C8F800A0FFF7CEFD9F
:1010D000064604E0FFF7CAFD801B02281FD82868D7
:1010E0008007F7D42078000722D5864F87486169AA
:1010F000703771B101210160FFF7B8FD064604E0C9
:10110000FFF7B4FD801B022809D838688007F7D59F
:101110000EE0C0F800A0FFF7A9FD064605E082E05A
:10112000FFF7A4FD801B02287DD838688007F7D41C
:101130002078400768D5DFF8CCB100270BF13C0BD5
:10114000DBF80000C0000BD4DBF8001041F0805148
:10115000CBF80010DBF80000012700F08050009071
:101160006B4E3068C00510D4306840F48070306039
:10117000FFF77CFD009005E0FFF778FD0099401A2D
:10118000022850D83068C005F6D55E4EA0686C368F
:1011900001280FD00528306810D020F00100306001
:1011A000306820F004003060A068B8B1FFF75EFD41
:1011B00000900FE0306840F00100F4E740F00400D8
:1011C0003060F7E7FFF752FD0099411A41F288308D
:1011D000814266D830688007F4D50EE0FFF746FDFF
:1011E000009007E0FFF742FD0099411A41F2883074
:1011F000814256D830688007F4D42FB1DBF8001054
:1012000021F08051CBF80010A069C8B33D49091DF9
:101210000968C1F3810102294AD00228504607D04B
:10122000C8F8600000E03CE0FFF720FD04463BE02A
:101230004746C8F86000FFF719FD064605E000BF05
:10124000FFF714FD801B02282BD828688001F7D4F3
:10125000D4E907010843A16A2E4A490802EB01417B
:10126000626A41EA8211084394F82C1040EA016155
:10127000C9F8001001203866FFF7F8FC044606E0C4
:101280003EE000BFFFF7F2FC001B022809D82868E7
:101290008001F7D534E000BFFFF7E8FC001B02280F
:1012A00002D90320BDE8F88F28688001F4D427E034
:1012B0000128F7D0D9F80000E26900F480019142DA
:1012C0001CD1226A00F03F01914217D147F6C0714C
:1012D000626A0140B1EB821F10D1A26A4FF0FF3366
:1012E00000F4403103EB5202B1EB024F06D194F807
:1012F0002C1000F07060B0EB016F01D00120D1E73D
:101300000020CFE70438024000004742800E4742E9
:10131000007000400000FFFF10B5401EB0F1807F5C
:1013200001D3012010BD4FF0E02460610F21601750
:1013300001F0B5FB0020A06107202061002010BD56
:101340007047704710B590F83C20012A22D0012246
:1013500080F83C20CA688C6822F4407222434C68B2
:1013600022F4806222430C6822F4006222430C695A
:1013700022F4805222434C6922F400522243C9696C
:10138000002322F480420A4301684A6480F83C301A
:10139000002010BD022010BD70B590F83C20012A3D
:1013A00032D0012480F83C40022280F83D200368BE
:1013B0005A689D6822F070060A6832435A60134BDF
:1013C00002689A4214D0B2F1804F11D0104B9A4269
:1013D0000ED0104B9A420BD00F4B9A4208D00F4BB5
:1013E0009A4205D00E4B9A4202D00E4B9A4204D13B
:1013F000496825F080031943916080F83D40002141
:1014000080F83C10084670BD022070BD000001400D
:101410000004004000080040000C004000040140AF
:10142000004001400018004090F83D10012901D013
:1014300001207047022180F83D1000681149884260
:1014400014D0B0F1804F11D00F4988420ED00F490F
:1014500088420BD00E49884208D00E49884205D0F8
:101460000D49884202D00D49884204D1816801F0BB
:101470000701062903D0016841F001010160002045
:1014800070470000000001400004004000080040D8
:10149000000C0040000401400040014000180040E2
:1014A000704770B50446006801694FF00005C943F4
:1014B000890715D4C168C943890711D4E91E0161A0
:1014C00001202077206880698007204602D0FFF73E
:1014D000E7FF04E000F0ECF8204600F0BFF92577C4
:1014E00020680169C943490717D4C168C94349073E
:1014F00013D46FF004010161022020772068806915
:1015000010F4407F204602D0FFF7CAFF04E000F04D
:10151000CFF8204600F0A2F9257720680169C94379
:10152000090716D4C168C943090712D46FF008012E
:101530000161042020772068C0698007204602D01E
:10154000FFF7AEFF04E000F0B3F8204600F086F9A4
:10155000257720680169C943C90617D4C168C94302
:10156000C90613D46FF010010161082020772068AC
:10157000C06910F4407F204602D0FFF791FF04E0DD
:1015800000F096F8204600F069F925772068016997
:10159000C943C90708D1C168C943C90704D1891E15
:1015A0000161204600F05BF920680169C943090622
:1015B00009D4C168C943090605D46FF080010161EF
:1015C0002046FFF7BDFE20680169C943490609D4DA
:1015D000C168C943490605D46FF040010161204646
:1015E00000F03EF920680169C94389060BD4C1683F
:1015F000C943890607D46FF0200101612046BDE888
:101600007040FFF79EBE70BD10B586B00446142131
:101610006846FEF70FFE0E492068884215D10D4836
:101620000021026842F480720260006800F4807059
:101630000590202000900220CDE9010103200390B5
:10164000049069460448FFF713FA06B010BD000085
:1016500000040140303802400020024070B50446CA
:1016600090F83C00002501280FD0012084F83C00B0
:101670006AB1042A0FD0082A11D00C2A13D00125F0
:10168000002084F83C00284670BD022070BD206810
:1016900000F0E0FEF4E7206800F00CFFF0E72068BF
:1016A00000F03EFFECE7206800F06EFFE8E7000086
:1016B000054808B50068416A044A009152881144FF
:1016C00089B20091416308BD3C0000200000002069
:1016D00010B5040003D094F83D0010B107E00120DC
:1016E00010BD002084F83C00204600F01FF80220C6
:1016F00084F83D00211D206800F03AFE012084F8A6
:10170000460084F83E0084F83F0084F8400084F8E6
:10171000410084F8420084F8430084F8440084F8CF
:10172000450084F83D00002010BD000008B50068A9
:101730000B49884212D10B48016841F00201016057
:101740000068002200F00200009001212E20FFF727
:10175000FBFABDE808402E20FFF7E8BA08BD0000FC
:10176000000401404438024030B5002504460222FE
:1017700049B1042912D008294CD094F8410001281D
:1017800053D0012030BD94F83E000128F9D184F8EF
:101790003E202068C26842F0020209E094F83F004F
:1017A0000128EED184F83F202068C26842F004028C
:1017B000C2600122206800F03FFE21492068214AD2
:1017C000884201D0904203D1436C43F40043436408
:1017D0002068884213D0B0F1804F10D01A49884257
:1017E0000DD01A4988420AD01949884207D0904240
:1017F00005D01849884202D01749884204D181682F
:1018000001F00701062903D0016841F001010160E0
:10181000284630BD94F840000128B2D184F8402019
:101820002068C26842F00802C2E784F841200C290F
:1018300001D00125ECE72068C26842F01002B7E74A
:101840000000014000040140000400400008004086
:10185000000C0040004001400018004070477047F5
:101860007047704710B504460068406994F83D1011
:10187000C0F3C010212911D180B12068143050E884
:10188000001F21F0800140E80012002AF5D1606BB2
:1018900008B1FEF70EFF204600F064FF20684069A3
:1018A00094F83E10C0F38010222911D180B1206835
:1018B000143050E8001F21F0400140E80012002AD7
:1018C000F5D1A06B08B1FEF7F4FE204600F023FF2F
:1018D000002010BD70470000F8B501680446086894
:1018E000CA684B6910F00F0F4FF0000559D003F094
:1018F000010602F49077374365D0C10705D0D105C2
:1019000003D5216C41F001012164410705D5D907B8
:1019100003D0216C41F002012164810705D5D9076C
:1019200003D0216C41F004012164010707D502F0C6
:101930002001314303D0216C41F008012164216C66
:1019400000293AD0800604D5900602D5204600F042
:1019500017FF20684069216CC0F38010090700D48C
:1019600060B3204600F0D7FE20684069400621D5CC
:101970002068143050E8001F21F0400140E80012B8
:10198000002AF5D1A06BA8B16C490165A06BFEF7E8
:10199000D9FE002811D0A06B016D01B0BDE8F04068
:1019A000084783060FD593060DD52046BDE8F840BD
:1019B00000F0E6BE2046FFF78DFFF8BD2046FFF79A
:1019C00089FF2564F8BD266B2023012E79D1C60638
:1019D00077D5D60675D508684868009048694006EE
:1019E00040D5A16B086840680004000CEAD0A28DC5
:1019F0008242E7D9E085C869B0F5807F2DD02068A4
:101A00000C3050E8001F21F4807140E80012002AD9
:101A1000F5D12068143050E8001F21F0010140E8A2
:101A20000012002AF5D12068143050E8001F21F080
:101A3000400140E80012002AF5D184F83E302563C9
:101A400020680C3050E8001F21F0100140E800121F
:101A5000002AF5D1A06BFEF72CFEA08DE18D401A77
:101A600081B229E0A08DE18D401A81B2E08D00287D
:101A7000A8D00029A6D020680C3050E8002F22F40E
:101A8000907240E80026002EF5D12068143050E80E
:101A9000002F22F0010240E80026002EF5D184F844
:101AA0003E30256320680C3050E8002F22F01002F1
:101AB00040E80023002BF5D12046FFF7D2FEF8BD09
:101AC000FFE705062BD5150629D594F83D002128FA
:101AD000F5D1A068B0F5805F01D12069B0B1206A6E
:101AE000411C2162216800784860E08C401E00049F
:101AF000000CE084E3D12068C16821F08001C1605E
:101B00002068C16841F04001C160D8E7206A0088C0
:101B1000C0F308004860206A801C2062E5E74006A8
:101B2000CDD55006CBD5CA68204622F04002CA6007
:101B300084F83D3000F0AFF9C1E70000212600082D
:101B400070B5040004D094F83D00002510B106E003
:101B5000012070BD84F83C50204600F023F824207A
:101B600084F83D002068C16821F40051C16020461E
:101B700000F066FE2068016921F49041016120684F
:101B8000416921F02A0141612068C16841F4005196
:101B9000C1602564202084F83D0084F83E000020C8
:101BA00070BD00002DE9F04F87B00446142168464F
:101BB000FEF740FB7548744AD4F800C073491038EA
:101BC0000226032700254FF0400B4FF000694FF429
:101BD000806A94455FD10A6842F480120A600968FD
:101BE00001F480110591016841F004010160016870
:101BF00001F004010591016841F0080101600068ED
:101C000002AA00F008000590F002CDE900064FF0AE
:101C1000080882E8A00169465D48FEF729FF042014
:101C2000CDE9000602AA694682E8A0015948FEF7FC
:101C30001FFF5A4E5848C8463060C6E90195C6E9AC
:101C4000035A7561B561F561356257463046756274
:101C5000FEF75AFE08B1FEF72AFDA663B4634F4EA5
:101C60004D486036A830C6E903577561B561F56126
:101C70003562756286E801093046FEF745FE08B117
:101C8000FEF715FD6663002202213520B463FFF7DD
:101C90005BF8352054E0DFF808810723414AC4454A
:101CA00053D13A49091DD1F800C04CF0100CC1F8CD
:101CB00000C0096801F010010591016841F00201BE
:101CC00001600068029500F002000590C020CDE997
:101CD0000006CDE9037369461046FEF7C9FE2F4E94
:101CE0003148C036C8463060C6E90195C6E9035A96
:101CF0007561B561F5613562574630467562FEF72C
:101D000003FE08B1FEF7D3FCA663B463274E264852
:101D1000C6E903577561B561F56135627830756262
:101D200086E801093046FEF7EFFD08B1FEF7BFFC7B
:101D30006663002203212520B463FFF705F8252000
:101D4000FEF7F4FF07B0BDE8F08F194CA445F9D1B8
:101D50000C6844F480240C60096801F4802105912A
:101D6000016841F0020101600068029500F0020084
:101D700005904FF44060CDE90006CDE90373694654
:101D80001046FEF775FEDDE7005000404038024087
:101D900000080240000C0240106002407801002060
:101DA00000100140000402404064024098020020FC
:101DB0000048004090F83E30202B0ED159B152B16E
:101DC00090F83C30012B08D0012380F83C300023F0
:101DD000036300F0BBBD01207047022070477047CD
:101DE000704700002DE9F843044690F83D001F4677
:101DF00016460D4620284CD1C5B1BEB194F83C0022
:101E0000012846D0012084F83C004FF00008C4F8B7
:101E10004080212084F83D00FEF728FFA6848146FB
:101E2000E684A068B0F5805F03D004E00120BDE83F
:101E3000F883206928B12E465FF0000584F83C80C5
:101E40000EE00026FAE78021204600F0C7FDA0B989
:101E5000AEB116F8010B21684860E08C401EE084AA
:101E6000E08C4B464FF0000200970028EBD14FF07A
:101E70004001204600F0B2FD30B10320D7E735F82D
:101E8000020BC0F30800E6E7202084F83D000020A4
:101E9000CDE70220CBE77047FEE70000034800696A
:101EA000C00701D000207047012070470010024099
:101EB00003480069800701D4012070470020704763
:101EC0000010024003480069400701D40120704718
:101ED000002070470010024003480069000701D449
:101EE000012070470020704700100240034800693D
:101EF000C00601D401207047002070470010024046
:101F0000194808B5016841F480010160016801F4D5
:101F100080010091016841F4001101600068002215
:101F200000F40010009011460B20FEF70DFF0B206F
:101F3000FEF7FCFE002211462F20FEF705FF2F20A2
:101F4000FEF7F4FE002211463A20FEF7FDFE3A208D
:101F5000FEF7ECFE002211464620FEF7F5FEBDE836
:101F600008404620FEF7E2BE303802402DE9F0413D
:101F700086B014216846FEF75DF9324800240168F6
:101F800041F010010160016801F010010591016844
:101F900041F080010160016801F080010591016854
:101FA00041F002010160016801F002010591016840
:101FB00041F001010160016801F001010591016832
:101FC00041F004010160016801F00401059101681C
:101FD00041F008010160016801F008010591016804
:101FE00041F4807101600068174F00F480704FF475
:101FF00080760590002231463846FEF731FEDFF844
:102000004C80002288214046FEF72AFE1F20012531
:102010008DE8310069460E48FEF72AFD0096CDE9AD
:102020000154694638460395FEF722FD882000904A
:10203000CDE90154694640460394FEF719FD06B008
:10204000BDE8F08130380240001C0240000C024024
:102050000010024010B592B000240F941C2108A873
:102060001094FEF7E7F820216846FEF7E3F82148D0
:102070001F4901600521C0E901144FF6FF71C0E955
:10208000031444618461FFF723FB08B1FEF70FFBE3
:102090000F940FA917481094FFF77EF908B1FEF7C7
:1020A00006FB3020089040F6B830CDE909040B94C7
:1020B0000C940D94002208A90E480E94FFF7CEFA56
:1020C00008B1FEF7F4FA00944FF40050CDE9044053
:1020D000029401940394694606480794FFF732F985
:1020E00008B1FEF7E4FA0348FFF78EFA12B010BD0C
:1020F000000401403C00002010B5114C0F480C2199
:1021000020604FF4165060600020A060E060C4E9D9
:102110000401A061E0612046FFF712FD08B1FEF75F
:10212000C6FA2068C16841F01001C160BDE81040E6
:10213000082204490248FFF73DBE0000005000405D
:10214000AC0000200800002010B5114C0F480C21F5
:1021500020604FF4E13060600020A060E060C4E9DE
:102160000401A061E0612046FFF7EAFC08B1FEF738
:102170009EFA2068C16841F01001C160044928221C
:10218000BDE810406C390248FFF714BE0010014052
:10219000F00000200C4810B50A4901604FF4E1310D
:1021A0004160002181600C22C160C0E9041281619C
:1021B000C161FFF7C5FC002803D0BDE81040FEF761
:1021C00076BA10BD0048004034010020FEE7FEF75B
:1021D000DFFEFEE77047000070B5134C1D463E263B
:1021E000049B26706070A170E2702571002004E0ED
:1021F000195C2218401C5171C0B2A842F8D3681D66
:10220000C1B20948FEF72EF961194871000A8871B8
:1022100006494FF4807008603223EA1DBDE8704023
:1022200001490348FFF7DEBD28000020181C0240CA
:1022300034010020704700002DE9F04100F0AAFCB5
:1022400000280FD000250126194B1A4C01280BD06D
:10225000042807D1207818B3012208211846FEF778
:10226000FFFC2570BDE8F0816078134F01280BD08A
:10227000012280211846FEF7F3FC00221146384661
:1022800000F0DAF86670EDE7002280211846FEF7CC
:10229000E7FC01220021384600F0CEF86570E1E746
:1022A000002208211846FEF7DBFC2670DAE7000062
:1022B000000C02400000002000040140FEF7DCBCDE
:1022C00030B593B030216846FDF7B4FF14210CA857
:1022D000FDF7B0FF1D480025016841F08051016005
:1022E000006800F0805011901948016841F4804165
:1022F00001600068022400F48040119001200090E9
:10230000000401908001CDE9064008AA0420A8211C
:1023100082E813000B906846FEF748FE08B172B6DB
:10232000FEE70CA90F2081E831004FF4A0500F9078
:102330004FF48050109005210CA8FEF739FD08B12C
:1023400072B6FEE7FEF7CEFD13B030BD4038024056
:10235000007000400248016841F47001016070475C
:1023600088ED00E00148FFF79CB800003C00002029
:10237000F0B50268254C264D264E274F274B4FF0CF
:10238000804CA04209D0604507D0A84205D0B04299
:1023900003D0B84201D0984204D122F0700E4A68AE
:1023A00042EA0E02A0421BD0604519D0A84217D0C5
:1023B000B04215D0B84213D0984211D0184DA8425F
:1023C0000ED0184DA8420BD0174DA84208D0174D7B
:1023D000A84205D0164DA84202D0164DA84203D1FE
:1023E00022F44075CA682A434D6922F080022A43CC
:1023F00002608A68C2620A688262A04201D0984282
:1024000001D10969016301214161F0BD0000014072
:102410000004004000080040000C0040000401409F
:1024200000400140004401400048014000180040C5
:10243000001C00400020004010B501F01F030121E6
:10244000046A99408C430462016A9A401143016214
:1024500010BD0000F0B5026A22F001020262036AB8
:1024600042688469124E24F073050C682C4323F0F3
:1024700002058B682B430D4DA84201D0B04205D117
:1024800023F00807CB683B4323F00403A84201D0A4
:10249000B04205D14D6922F4407215438A692A433E
:1024A00042608461496841630362F0BD00000140FD
:1024B00000040140F0B5026A22F010020262026AD2
:1024C000436884690D6824F4E64444EA05248D6871
:1024D00022F0200242EA05120F4D104EA84201D010
:1024E000B04206D1CF6822F0800242EA071222F001
:1024F0004002A84201D0B04207D14D6923F44063A5
:1025000043EA85038D6943EA850343608461496832
:1025100081630262F0BD0000000001400004014040
:10252000F0B5026A22F480720262026A4368C469EA
:1025300022F4007224F073050C68124E2C438D684F
:1025400042EA05220E4DA84201D0B04206D1CF6822
:1025500022F4006242EA072222F48062A84201D0FB
:10256000B04207D14D6923F4405343EA05138D6906
:1025700043EA05134360C4614968C1630262F0BD68
:10258000000001400004014030B5026A22F480528C
:102590000262046A4268C3690D6823F4E64343EAB1
:1025A00005238D6824F4005444EA0534084DA842FC
:1025B00002D0084DA84204D14D6922F4804242EA7B
:1025C00085124260C36149680164046230BD000045
:1025D00000000140000401400D4808B50068016892
:1025E000C943C9060FD40168406800900848FFF746
:1025F00039F90848006840680749C0F108000870C8
:10260000064901200870BDE808400148FFF764B999
:10261000AC00002078010020060000200700002008
:1026200010B5806B0021C185C184FFF753F910BD3F
:1026300070B5846B2068406994F83D10C0F3C010F9
:102640000025212904D118B1E584204600F08AF83C
:102650002068406994F83E10C0F38010222904D10C
:1026600018B1E585204600F056F8206C40F01000C7
:1026700020642046FFF72EF970BD10B50146806B2F
:1026800009680968C9052FD40021C18501680C318A
:1026900051E8002F22F4807241E80023002BF5D18D
:1026A0000168143151E8002F22F0010241E80023B3
:1026B000002BF5D10168143151E8002F22F04002BF
:1026C00041E80023002BF5D1202180F83E10016B5A
:1026D000012909D101680C3151E8002F22F01002C4
:1026E00041E80023002BF5D1016B012902D0FFF74F
:1026F00076FB10BD818DFFF7B4F810BD10B5806B6F
:10270000016B012902D0FFF76BFB10BD818D4908D9
:10271000FFF7A7F810BD01680C3151E8002F22F433
:10272000907241E80023002BF5D10168143151E883
:10273000002F22F0010241E80023002BF5D1016BAC
:10274000012909D101680C3151E8002F22F0100253
:1027500041E80023002BF5D1202180F83E10002114
:102760000163704701680C3151E8002F22F0C0026C
:1027700041E80023002BF5D1202180F83D1070475F
:1027800008B590F83E10222901D0022008BD8268C9
:102790004FF480539A4201D1016921B1816A9A4272
:1027A0001BD04AB10AE00268816A5268C2F308028B
:1027B0000A80816A891C08E0026972B10268526865
:1027C00002F07F020A70816A491C8162C18D491E34
:1027D0000904090CC18503D019E002685268F1E7C9
:1027E0000168CA6822F02002CA600168CA6822F43F
:1027F0008072CA6001684A6922F001024A612021A0
:1028000080F83E10016B012903D0FFF7E8FA0020A1
:1028100008BD0021016301680C3151E8002F22F04E
:10282000100241E80023002BF5D101680A68D206A6
:1028300002D50A6849680091818DFFF712F8E6E732
:1028400070B5044600680169E26821F44051114303
:1028500001612169A068E269084361691143084385
:102860002168CA6849F20C639A430243CA6020682F
:102870004169A26921F440711143416131492068E5
:10288000884202D03049884202D1FEF741FB01E084
:10289000FEF72EFBE2690023192164253226B2F5EA
:1028A000004F626828D0A0FB0101930F9200FDF752
:1028B00089FC0146B0FBF5F06FF01802504301EBC4
:1028C000800006EB0010B0FBF5F000F0F002B1FB69
:1028D000F5F002EB0012B1FBF5F06FF0180358436E
:1028E00001EB800006EB0010B0FBF5F000F00F00EC
:1028F00021681044886070BDA0FB010192185B4103
:10290000FDF760FC0146B0FBF5F00201B1FBF5F00C
:102910006FF01803584301EB800006EBC000B0FBDA
:10292000F5F000F0F80002EB4002B1FBF5F058437F
:1029300001EB800006EBC000B0FBF5F000F00700F3
:10294000D6E70000001001400014014038B5816254
:1029500082850025134604460564222084F83E0043
:10296000A26B1B48D063A26B1A481064A26B1A4872
:10297000D064A06B0A4605652168A06B091DFEF7AF
:102980002DF8206801684068009084F83C50206869
:102990000C3050E8001F41F4807140E80012002A1A
:1029A000F5D12068143050E8001F41F0010140E8E3
:1029B0000012002AF5D12068143050E8001F41F0C1
:1029C000400140E80012002AF5D1002038BD000087
:1029D0007B260008FD260008312600082DE9F0417D
:1029E000984617460E460446069D27E0681C25D0EB
:1029F0002DB1FEF73BF9A0EB0800A8421ED92068D4
:102A00000C3050E8001F21F4D07140E80012002A79
:102A1000F5D12068143050E8001F21F0010140E892
:102A20000012002AF5D1202084F83D0084F83E00F1
:102A3000002084F83C000320BDE8F0812068006895
:102A400036EA000004D00020B842CFD00020F3E7DF
:102A50000120F9E70D4808B500680168C943C906B7
:102A60000FD40168406800900848FEF7FBFE084854
:102A7000006840680749C0F1280008700649012035
:102A80000870BDE808400148FEF726BFF0000020AE
:102A9000380200200400002005000020FEE709079E
:102AA000090E002804DB00F1E02080F800147047D4
:102AB00000F00F0000F1E02080F8141D70470000C6
:102AC000004870472400002002E008C8121F08C117
:102AD000002AFAD170477047002001E001C1121F9F
:102AE000002AFBD17047000070B50646284800EB6D
:102AF000061420688047052100250028207906EB70
:102B0000460331D0052801D2217170BD0A2802D2B6
:102B1000401C207170BDA07A06EB4606761C20B9D9
:102B20000120A072F0B200F07DF821890029F1D0D7
:102B3000E088884208D2401C80B2E0802189884227
:102B4000E8D1DB1CD8B20BE0E07A0028E2D0207B91
:102B5000401CC0B22073E17A8842DBD32573F0B207
:102B6000BDE8704000F05EB8052801D921710BE086
:102B700010B1401E207107E0A07A012804D19B1CEF
:102B8000A572D8B200F04EF8E580257370BD000044
:102B9000F802002007498A7AC87A824201D10020CF
:102BA0007047885C521CD2B28A720A2AF8D300227B
:102BB0008A7270474803002030B50F490020642412
:102BC0008872C872087350390246022501EB02135D
:102BD000521C1C811D719872D872D2B21873052ACA
:102BE000F4D30648086006480861064808620648AB
:102BF00008630648086430BD480300209D1E000895
:102C0000B11E0008C51E0008D91E0008ED1E0008F0
:102C100010B500242046FFF767FF641CE4B2052CC2
:102C2000F8D310BD0549CA7A8854C87A401CC0B28E
:102C3000C8720A2801D30020C872704748030020D8
:102C40001CB506A13223D1E90001CDE9000108221B
:102C500069460448FFF7C6F81CBD000001030000E8
:102C60000001840AAC000020FEF70EF8FFF728FBF5
:102C7000FFF77CF9FFF78EFAFFF742F9FFF764FAE6
:102C8000FFF7E8F9FFF738FA012280211248FDF733
:102C9000E7FF1248FEF7C8FB00211048FEF764FD6D
:102CA000FFF78AFF0E4D0F4CFFF7B2FFFFF7C4FA94
:102CB000287820B10C4800F099F800F017F8FFF7D9
:102CC000BFFF1420FDF7C2FE20780028ECD000F0F2
:102CD0007DF800F025F8E7E7000C02403C000020FA
:102CE00005000020070000208400002010B5084CDB
:102CF00021780848FDF79EFA0020207006490870E8
:102D0000BDE81040282203490448FFF753B80000EB
:102D1000040000208400002005000020F0000020B6
:102D200010B5084C21780848FDF784FA002020707F
:102D300006490870BDE81040082203490448FFF71F
:102D400039B800000600002008000020070000201D
:102D5000AC0000201CB50022019289034FF4B4722C
:102D600091FBF2F28DF80420110A8DF80510110C78
:102D70008DF80610110E8DF8071001A9009101467B
:102D8000042355220020FFF727FA02494FF08070F4
:102D900008601CBD181C024070B515460C4606465E
:102DA00004E02178304600F004F8641C6D1EF8D26F
:102DB00070BD13B5044601A964230122FFF712F880
:102DC00020680168C9434906FBD41CBD064908B503
:102DD000C878097941EA0021ADF80010022168465F
:102DE00000F030F808BD0000080000202DE9F04197
:102DF00000252E4611A1FDF728FA401C07460FA119
:102E0000FDF723FA044637B10DA13846FDF730FA35
:102E1000FDF750FA05B234B1601C09A1FDF728FA9C
:102E2000FDF748FA06B229460120FFF793FF314625
:102E3000BDE8F0410220FFF78DBF00003A0000001E
:102E40002C0000007CB505460BA00C4600680090E5
:102E50000AA002220068019069460948FFF79CFF1A
:102E6000224629460648FFF797FF022201A9044897
:102E7000FFF792FF7CBD000003FC0000FC03000094
:102E8000F0000020000001CC01D8001401F0003C4B
:102E9000002801E401A0006C007801B40050019CFE
:102EA00001880044000610160006101600000000FD
:102EB00000000000010203040607080900000000EA
:102EC0000102030400404040404040404040414136
:102ED00041414140404040404040404040404040EF
:102EE0004040404040050202020202020202020289
:102EF0000202020202202020202020202020200286
:102F00000202020202029090909090901010101015
:102F100010101010101010101010101010101010B1
:102F20000202020202028888888888880808080845
:102F30000808080808080808080808080808080811
:102F40000202020240000000C52E00086C2F00089B
:102F50000000002028000000C82A0008942F000864
:102F60002800002030070000D82A00080100F401E2
:102F70000000000000000000000000000100000050
:102F800010000000000000000024F4000000000019
:042F9000000000003D
:040000050800018965
:00000001FF
