:020000040800F2
:10000000B0040020A1010008CF110008E910000889
:10001000CD110008AD020008911500080000000095
:100020000000000000000000000000003512000881
:10003000F502000800000000D51100083712000882
:10004000BB010008BB010008BB010008BB010008A0
:10005000BB010008BB010008BB010008BB01000890
:10006000BB010008BB010008BB010008BB01000880
:10007000BB010008BB010008BB010008BB01000870
:10008000BB010008BB010008BB010008BB01000860
:10009000BB010008BB010008BB010008BB01000850
:1000A000BB010008BB010008BB010008BB01000840
:1000B000BB010008BB010008BB010008BB01000830
:1000C000BB010008BB010008BB010008BB01000820
:1000D000BB01000885150008BB010008BB01000832
:1000E000BB010008BB010008BB010008BB01000800
:1000F000BB010008BB010008BB010008BB010008F0
:10010000BB010008BB010008BB010008BB010008DF
:10011000BB010008BB010008BB010008BB010008CF
:10012000BB010008BB010008BB010008BB010008BF
:10013000BB010008BB010008BB010008BB010008AF
:10014000BB010008BB010008BB010008BB0100089F
:10015000BB010008BB010008BB010008BB0100088F
:10016000BB010008BB010008BB010008BB0100087F
:10017000BB010008BB010008BB0100080000000033
:10018000BB010008BB010008DFF810D000F07CF8CC
:1001900000480047D9180008AFF30080B0040020E1
:1001A0000648804706480047FEE7FEE7FEE7FEE711
:1001B000FEE7FEE7FEE7FEE7FEE7FEE7D1120008F6
:1001C000890100082DE9F05F0546002092469B4614
:1001D00088460646814640241BE02846414647465D
:1001E000224600F041F853465A46C01A914110D3B6
:1001F00011461846224600F028F82D1A67EB010830
:100200004F4622460120002100F01FF817EB00099D
:100210004E41201EA4F10104DFDC484631462A4647
:100220004346BDE8F09FD2B201E000F8012B491E21
:10023000FBD270470022F6E710B513460A46044683
:100240001946FFF7F0FF204610BD202A04DB203AB4
:1002500000FA02F1002070479140C2F1200320FA19
:1002600003F3194390407047202A04DB203A21FA17
:1002700002F00021704721FA02F3D040C2F12002BF
:100280009140084319467047064C074D06E0E06868
:1002900040F0010394E8070098471034AC42F6D3CD
:1002A000FFF776FFA0190008C0190008FEE700005C
:1002B00070B503464FF6FF7000220D4D14E000BFED
:1002C00013F8014B521C84EA000606F00F0692B2A6
:1002D00035F8166086EA101080EA141404F00F0452
:1002E00035F8144084EA10108A42E9D370BD00004A
:1002F00068190008704772B6FEE72DE9F041044620
:10030000876D00F065F9064694F83500002502284F
:1003100006D08020606584F834500120BDE8F0816B
:100320002068016821F0160101602068416921F010
:1003300080014161206C08B9A06C20B1206801687F
:1003400021F0080101602068016821F001010160CD
:100350000CE000F03DF9801B052807D920206065DE
:10036000032084F8350084F83450D7E7206800680B
:10037000C007EED194F85C103F208840B86001209F
:1003800084F8350084F834500020C7E790F8351021
:10039000022903D08021416501207047052180F8A2
:1003A00035100068016821F00101016000207047EC
:1003B00070B5044600F00CF90546601C02D00448F4
:1003C0000078044400F004F9401BA042FAD370BD49
:1003D000000000202DE9F84FDFF8BCA10022012524
:1003E0000AF1040B03264FF00F090BF1040E00BFB6
:1003F0000B6805FA02F42340A34270D10F7907F08D
:100400000307012F01D0022F16D187684FEA420857
:1004100006FA08FC27EA0C07D1F80CC00CFA08FC15
:100420004CEA070CC0F808C04768A7430C79C4F32E
:10043000001494403C4344600C79E443A4070AD080
:10044000C4684FEA420C06FA0CF7BC438F6807FAFF
:100450000CF72743C7600C7904F00304022C12D177
:10046000D40800EB840CDCF820405707FF0E09FA93
:1004700007F824EA0804D1F8108008FA07F848EAD7
:100480000408CCF8208004684FEA420C06FA0CF706
:10049000BC430F7907F0030707FA0CF727430760FF
:1004A0004C6814F4403F70D03C4C276847F48047B8
:1004B0002760246822F0030704F480440094384C39
:1004C00007EB040CDCF8084897074FEA177809FA9D
:1004D00008F7BC43334FB84202D1002724E054E070
:1004E000314FB84201D101271EE0304FB84201D14F
:1004F000022719E02E4FB84201D1032714E02D4FF7
:10050000B84201D104270FE02B4FB84201D1052793
:100510000AE02A4FB84201D1062705E0284FB84229
:1005200001D1072700E0082707FA08F72743CCF88E
:100530000878DAF800405746D1F804C09C435FEAD7
:10054000CC3C00D51C433C60DBF800405F46D1F852
:1005500004C09C435FEA8C3C00D51C433C60DEF841
:1005600000407746D1F804C09C435FEACC2C00D50C
:100570001C433C60084F0C373C68D1F804C09C43D6
:100580005FEA8C2C00D51C433C60521C102AFFF4FF
:100590002FAFBDE8F88F0000003C01404438024016
:1005A0000030014000000240000402400008024008
:1005B000000C0240001002400014024000180240EB
:1005C000001C02400AB1816170470904FBE700008A
:1005D00001488068704700000000002002488168E0
:1005E0000278114481607047000000200B4810B56C
:1005F000016841F400710160016841F480610160AB
:10060000016841F480710160032000F06FF80F2051
:1006100000F006F800F024F8002010BD003C024075
:1006200070B50D4D04464FF47A712878B1FBF0F0A7
:100630000A490968B1FBF0F000F020FB48B9102C22
:1006400007D200222146501E00F030F800206C60D6
:1006500070BD012070BD0000000000200C000020D3
:100660000A4808B5016841F480410160006800F45F
:10067000804000900548001F016841F080510160F2
:10068000006800F08050009008BD0000443802402F
:10069000002809DB00F01F02012191404009800081
:1006A00000F1E020C0F8001170470000F0B40E4BDC
:1006B0001B680C46C3F30223C3F10705042D00D9C0
:1006C0000425191D072901D2002300E0DB1E0126A5
:1006D00006FA05F1491E214099409E40761E1640BB
:1006E0003143F0BC00F066BF0CED00E0064900F0BD
:1006F000070208684FF6FF03184040EA0220034A49
:1007000010430860704700000CED00E00000FA059F
:10071000704700002DE9F0470E46050065D0DFF870
:100720001481D8F80000F7B200F00700B04207D2F9
:1007300088F80070D8F8000000F00700B04254D1EB
:1007400028683D4C810712D5400703D5206840F446
:10075000E05020602878000703D5206840F460400E
:1007600020602068A96820F0F00008432060287805
:10077000C0072DD0304968680839012812D00228F6
:1007800013D0032811D00968890700292DDA2168C0
:1007900021F0030101432160FFF71AFF814641F276
:1007A000883A0EE009688903EFE709688901ECE7F8
:1007B000FFF70EFFA0EB0901514502D90320BDE868
:1007C000F0872068696800F00C00B0EB810FEFD172
:1007D000D8F80010404601F00701B14207D9077070
:1007E000006800F00700B04201D00120E7E7287858
:1007F000400705D52068E96820F4E05008432060F0
:100800002878000706D52068296920F4604040EA6E
:10081000C100206000F03EF82168084AC1F30311CE
:10082000515CC8400649086006480068FFF7F8FEBA
:100830000020C4E7003C0240083802408819000844
:100840000C0000200400002001490120C86470470A
:10085000000047420448054900680968044AC1F39A
:100860008221515CC84070470C00002008380240CB
:10087000981900080448054900680968044AC1F34A
:100880004231515CC84070470C00002008380240DB
:1008900098190008154810B5006810F00C021448AB
:1008A00013D04110042A0FD0082A0ED10F4C241F58
:1008B0002268236802F03F025B0207D52068C0F37C
:1008C0008810A0FB010106E0084610BD2168C1F3B5
:1008D0008811A1FB00010023FFF774FC2168C1F31C
:1008E0000141491C4900B0FBF1F010BD083802403D
:1008F0000024F400054810B50068000605D5FFF790
:1009000007FF02498020891C087010BD0C38024086
:100910002DE9F84F04006ED02078DFF84C93C00723
:10092000A9F104054AD009F104000168C1F381016D
:10093000012908D00068C0F3810002280AD1D9F843
:100940000000400206D52868800337D5606800287B
:10095000E1D033E06068B0F5803F10D0B0F5A02F53
:10096000286810D020F480302860286820F4802087
:1009700028606068A8B1FFF72BFE06460DE02868E6
:1009800040F48030F4E740F480202860F7E700BFAF
:10099000FFF71EFE801B642873D828688003F7D5F4
:1009A0000CE0FFF715FE064605E000BFFFF710FE5E
:1009B000801B6428F0D828688003F7D42078DFF8FB
:1009C000AC8280074FF0000A3ED5A748001D0168A1
:1009D00011F00C0F08D00068C0F3810002280BD181
:1009E000D9F80000400207D42868800716D5E068CF
:1009F000012800D112E033E1E068B8B10120C8F865
:100A00000000FFF7E5FD064605E000BFFFF7E0FD4B
:100A1000801B0228C0D828688007F7D5286821697C
:100A200020F0F80040EAC10028600DE0C8F800A0FE
:100A3000FFF7CEFD064604E0FFF7CAFD801B022843
:100A40001FD828688007F7D42078000722D5864F62
:100A500087486169703771B101210160FFF7B8FD06
:100A6000064604E0FFF7B4FD801B022809D8386869
:100A70008007F7D50EE0C0F800A0FFF7A9FD0646F5
:100A800005E082E0FFF7A4FD801B02287DD83868CE
:100A90008007F7D42078400768D5DFF8CCB100276D
:100AA0000BF13C0BDBF80000C0000BD4DBF80010AE
:100AB00041F08051CBF80010DBF80000012700F076
:100AC000805000906B4E3068C00510D4306840F400
:100AD00080703060FFF77CFD009005E0FFF778FD47
:100AE0000099401A022850D83068C005F6D55E4EED
:100AF000A0686C3601280FD00528306810D020F08F
:100B000001003060306820F004003060A068B8B1A7
:100B1000FFF75EFD00900FE0306840F00100F4E761
:100B200040F004003060F7E7FFF752FD0099411AEA
:100B300041F28830814266D830688007F4D50EE0F3
:100B4000FFF746FD009007E0FFF742FD0099411ACC
:100B500041F28830814256D830688007F4D42FB1F2
:100B6000DBF8001021F08051CBF80010A069C8B369
:100B70003D49091D0968C1F3810102294AD00228B3
:100B8000504607D0C8F8600000E03CE0FFF720FDC9
:100B900004463BE04746C8F86000FFF719FD0646EB
:100BA00005E000BFFFF714FD801B02282BD8286842
:100BB0008001F7D4D4E907010843A16A2E4A490805
:100BC00002EB0141626A41EA8211084394F82C1059
:100BD00040EA0161C9F8001001203866FFF7F8FC0F
:100BE000044606E03EE000BFFFF7F2FC001B0228CF
:100BF00009D828688001F7D534E000BFFFF7E8FC8A
:100C0000001B022802D90320BDE8F88F2868800164
:100C1000F4D427E00128F7D0D9F80000E26900F405
:100C2000800191421CD1226A00F03F01914217D10C
:100C300047F6C071626A0140B1EB821F10D1A26A0F
:100C40004FF0FF3300F4403103EB5202B1EB024F9F
:100C500006D194F82C1000F07060B0EB016F01D059
:100C60000120D1E70020CFE70438024000004742CE
:100C7000800E4742007000400000FFFF10B5401E8C
:100C8000B0F1807F01D3012010BD4FF0E0246061FE
:100C90000F21601700F08EFC0020A061072020616A
:100CA000002010BD70477047F8B501680446086819
:100CB000CA684B6910F00F0F4FF0000559D003F0D0
:100CC000010602F49077374365D0C10705D0D105FE
:100CD00003D5216C41F001012164410705D5D907F5
:100CE00003D0216C41F002012164810705D5D907A9
:100CF00003D0216C41F004012164010707D502F003
:100D00002001314303D0216C41F008012164216CA2
:100D100000293AD0800604D5900602D5204600F07E
:100D20000EFB20684069216CC0F38010090700D4D5
:100D300060B3204600F0DCFA20684069400621D507
:100D40002068143050E8001F21F0400140E80012F4
:100D5000002AF5D1A06BA8B16C490165A06BFFF723
:100D600015FB002811D0A06B016D01B0BDE8F0406B
:100D7000084783060FD593060DD52046BDE8F840F9
:100D800000F0DDBA2046FFF78EFFF8BD2046FFF7E2
:100D90008AFF2564F8BD266B2023012E79D1C60673
:100DA00077D5D60675D5086848680090486940062A
:100DB00040D5A16B086840680004000CEAD0A28D01
:100DC0008242E7D9E085C869B0F5807F2DD02068E0
:100DD0000C3050E8001F21F4807140E80012002A16
:100DE000F5D12068143050E8001F21F0010140E8DF
:100DF0000012002AF5D12068143050E8001F21F0BD
:100E0000400140E80012002AF5D184F83E30256305
:100E100020680C3050E8001F21F0100140E800125B
:100E2000002AF5D1A06BFFF768FAA08DE18D401A7A
:100E300081B229E0A08DE18D401A81B2E08D0028B9
:100E4000A8D00029A6D020680C3050E8002F22F44A
:100E5000907240E80026002EF5D12068143050E84A
:100E6000002F22F0010240E80026002EF5D184F880
:100E70003E30256320680C3050E8002F22F010022D
:100E800040E80023002BF5D12046FFF70BFFF8BD0B
:100E9000FFE705062BD5150629D594F83D00212836
:100EA000F5D1A068B0F5805F01D12069B0B1206AAA
:100EB000411C2162216800784860E08C401E0004DB
:100EC000000CE084E3D12068C16821F08001C1609A
:100ED0002068C16841F04001C160D8E7206A0088FD
:100EE000C0F308004860206A801C2062E5E74006E5
:100EF000CDD55006CBD5CA68204622F04002CA6044
:100F000084F83D3000F0EFF8C1E70000E11200087E
:100F100070B5040004D094F83D00002510B106E03F
:100F2000012070BD84F83C50204600F023F82420B6
:100F300084F83D002068C16821F40051C16020465A
:100F400000F05EFA2068016921F490410161206897
:100F5000416921F02A0141612068C16841F40051D2
:100F6000C1602564202084F83D0084F83E00002004
:100F700070BD0000F0B587B0044614216846FFF745
:100F800059F9274F23680022264902240325072602
:100F90002548BB4224D1234B14331F6847F0100768
:100FA0001F601B6803F0100305930B6843F00203F6
:100FB0000B60096802AB01F002010591C021CDE987
:100FC000001483E864006946FFF704FA0022022156
:100FD0002520FFF76BFB2520FFF75AFB07B0F0BD7C
:100FE000124FBB42FAD10F4B10331F6847F48027D2
:100FF0001F601B6803F4802305930B6843F0020312
:101000000B60096802AB01F0020105914FF44061E9
:10101000CDE9001483E864006946FFF7DBF9DDE7FA
:1010200000100140303802400004024000480040F7
:10103000704700002DE9F843044690F83D001F4634
:1010400016460D4620284CD1C5B1BEB194F83C00DF
:10105000012846D0012084F83C004FF00008C4F875
:101060004080212084F83D00FFF7B2FAA684814633
:10107000E684A068B0F5805F03D004E00120BDE8FD
:10108000F883206928B12E465FF0000584F83C8083
:101090000EE00026FAE78021204600F037FAA0B9DA
:1010A000AEB116F8010B21684860E08C401EE08468
:1010B000E08C4B464FF0000200970028EBD14FF038
:1010C0004001204600F022FA30B10320D7E735F87E
:1010D000020BC0F30800E6E7202084F83D00002062
:1010E000CDE70220CBE77047FEE7000070B586B081
:1010F00014216846FFF79EF816480025016841F064
:1011000080010160016801F080010591016841F0F2
:1011100002010160016801F002010591016841F0DE
:101120000101016000680C4E00F001004FF4807472
:101130000590002221463046FFF744FA0121CDE90F
:101140000041CDE9025169463046FFF743F906B048
:1011500070BD000030380240001C02400C4810B541
:101160000A4901604FF4E1314160002181600C22A5
:10117000C160C0E904128161C161FFF7C9FE0028A6
:1011800003D0BDE81040FFF7B6B810BD0010014015
:10119000280000200C4810B50A4901604FF4E131E5
:1011A0004160002181600C22C160C0E904128161AC
:1011B000C161FFF7ADFE002803D0BDE81040FFF786
:1011C0009AB810BD004800406C000020FEE7FFF711
:1011D00091FBFEE77047000070B5134C1D463E269C
:1011E000049B26706070A170E2702571002004E0FD
:1011F000195C2218401C5171C0B2A842F8D3681D76
:10120000C1B20948FFF754F861194871000A8871A2
:1012100006494FF4807008603223EA1DBDE8704033
:1012200001490348FFF706BF14000020181C0240C4
:101230006C0000207047FFF7D1B9000030B593B0C3
:1012400030216846FEF7F6FF14210CA8FEF7F2FFE6
:101250001D480025016841F080510160006800F0E0
:10126000805011901948016841F480410160006884
:10127000022400F4804011900120009000040190AD
:101280008001CDE9064008AA0420A82182E81300C5
:101290000B906846FFF73CFB08B172B6FEE70CA95D
:1012A0000F2081E831004FF4A0500F904FF4805090
:1012B000109005210CA8FFF72DFA08B172B6FEE7D1
:1012C000FFF7C2FA13B030BD403802400070004052
:1012D0000248016841F470010160704788ED00E048
:1012E00010B5806B0021C185C184FFF7DCFC10BD07
:1012F00001680C3151E8002F22F4907241E800237C
:10130000002BF5D10168143151E8002F22F00102C1
:1013100041E80023002BF5D1016B012909D10168B7
:101320000C3151E8002F22F0100241E80023002B7D
:10133000F5D1202180F83E1000210163704708B5E7
:1013400090F83E10222901D0022008BD82684FF497
:1013500080539A4201D1016921B1816A9A421BD01E
:101360004AB10AE00268816A5268C2F308020A8040
:10137000816A891C08E0026972B10268526802F051
:101380007F020A70816A491C8162C18D491E09046D
:10139000090CC18503D019E002685268F1E70168C1
:1013A000CA6822F02002CA600168CA6822F480720A
:1013B000CA6001684A6922F001024A61202180F86E
:1013C0003E10016B012903D0FFF732FE002008BD5B
:1013D0000021016301680C3151E8002F22F0100256
:1013E00041E80023002BF5D101680A68D20602D536
:1013F0000A6849680091818DFFF754FCE6E7000018
:1014000070B5044600680169E26821F44051114357
:1014100001612169A068E2690843616911430843D9
:101420002168CA6849F20C639A430243CA60206883
:101430004169A26921F44071114341613149206839
:10144000884202D03049884202D1FFF713FA01E006
:10145000FFF700FAE2690023192164253226B2F56C
:10146000004F626828D0A0FB0101930F9200FEF7A5
:10147000A9FE0146B0FBF5F06FF01802504301EBF6
:10148000800006EB0010B0FBF5F000F0F002B1FBBD
:10149000F5F002EB0012B1FBF5F06FF018035843C2
:1014A00001EB800006EB0010B0FBF5F000F00F0040
:1014B00021681044886070BDA0FB010192185B4157
:1014C000FEF780FE0146B0FBF5F00201B1FBF5F03E
:1014D0006FF01803584301EB800006EBC000B0FB2F
:1014E000F5F000F0F80002EB4002B1FBF5F05843D4
:1014F00001EB800006EBC000B0FBF5F000F0070048
:10150000D6E7000000100140001401402DE9F04131
:10151000984617460E460446069D27E0681C25D0CF
:101520002DB1FFF755F8A0EB0800A8421ED920689E
:101530000C3050E8001F21F4D07140E80012002A5E
:10154000F5D12068143050E8001F21F0010140E877
:101550000012002AF5D1202084F83D0084F83E00D6
:10156000002084F83C000320BDE8F081206800687A
:1015700036EA000004D00020B842CFD00020F3E7C4
:101580000120F9E70148FFF78FBB00002800002089
:10159000FEE700000FB4054B10B503A9044A0298FA
:1015A00000F028F810BC5DF814FB0000B518000826
:1015B000100000200907090E002804DB00F1E020DC
:1015C00080F80014704700F00F0000F1E02080F870
:1015D000141D704702E008C8121F08C1002AFAD182
:1015E00070477047002001E001C1121F002AFBD1A3
:1015F000704700002DE9FF4F8DB09B460F46044613
:10160000002606E025280BD05A460F999047641C07
:10161000761C20780028F5D111B03046BDE8F08F57
:101620000025A8460122984900E0054314F8013F2F
:10163000203B02FA03F00842F7D120782E2817D178
:1016400014F8010F45F004052A280ED06FF02F0280
:101650002078A0F1300109290AD808EB880102EBB3
:10166000410100EB0108641CF2E757F8048B641C8D
:1016700020786C280DD004DC4C2812D06A2811D1B7
:1016800004E074280DD07A280CD10AE045F4001546
:1016900007E0617845F48015814202D1641C05F5AC
:1016A0008015641C2078692844D008DC0028B3D059
:1016B000582867D063280FD0642808D13AE07028F2
:1016C00065D0732812D075285AD078285AD05A4637
:1016D0000F999047761CD5E017F8040B8DF80000A1
:1016E00000208DF80100E946012003E057F8049B33
:1016F0004FF0FF3069074FF0000501D40AE06D1C80
:1017000045450DDA8542FADB19F805100029F6D1B6
:1017100006E06D1C8542FCDB19F805100029F8D1A4
:101720002E4404E019F8010B5A460F9990476D1E9C
:10173000F8D2A7E00A200021CDE90801C5F3025044
:1017400002280CD001CFC117021E71F100020CDA81
:101750000023D0EB030063EB01012D2208E0FF1D05
:1017600027F00707F7E80201EEE72A0504D52B2248
:101770008DF8282001223CE0EA073AD02022F7E742
:101780000A2000E010200021CDE9080107E0102028
:10179000002145F00405CDE908014FF00808C5F324
:1017A0000250022810D001CF00214FF0000A2A0772
:1017B00020D52278702A0DD0DDE908C38CF0100CFA
:1017C0005CEA030C0CD015E0FF1D27F00707F7E8D3
:1017D0000201EAE740228DF828204FF0010A0CE0D0
:1017E00050EA010306D030238DF828308DF82920E7
:1017F000022292462278582A04D024A20DF1200910
:101800000B9209E026A2F9E7DDE90823FEF7DAFCEE
:101810000B9B9B5C09F8013D50EA0102F4D1ADEB52
:10182000090020300890680701D44FF0010808999A
:10183000884503DD0898A8EB000000E00020804602
:10184000002506E00AA85A46405D0F9990476D1C96
:10185000761C5545F6DB04E030205A460F99904738
:10186000761CB8F10001A8F10108F5DC05E019F8D3
:10187000010B5A460F999047761C0899481E08900C
:101880000029F4DC641CC4E609280100303132333D
:1018900034353637383961626364656600000000AC
:1018A0003031323334353637383941424344454696
:1018B0000000000013B50023012269460548FFF728
:1018C000B9FB044800680168C9434906FBD4009885
:1018D0001CBD000028000020FEF788FEFFF7AEFCCC
:1018E000FFF704FCFFF756FCFFF738FC0BA0FFF7EF
:1018F00051FE4FF47A74002000F014F82046FEF7F1
:1019000057FD782000F00EF82046FEF751FDF0203C
:1019100000F008F82046FEF74BFDECE768656C6CBC
:101920006F0000001CB50021019180034FF4B471D9
:1019300090FBF1F08DF80400010A8DF80510010C00
:101940008DF80610000E8DF8070001A80090042302
:10195000552202210020FFF73FFC02494FF0807022
:1019600008601CBD181C0240000001CC01D8001406
:1019700001F0003C002801E401A0006C007801B4F3
:101980000050019C0188004400000000000000009D
:101990000102030406070809000000000102030415
:1019A000C01900080000002014000000D415000831
:1019B000D4190008140000209C040000E41500085D
:1019C0000100000010000000000000000024F400EE
:0419D0000000000013
:040000050800018965
:00000001FF
